:020000040800F2
:10000000B007002065020008B31E0008E71C0008C6
:10001000B11E00085B040008F9250008000000007C
:10002000000000000000000000000000B71E0008F3
:100030000D05000800000000B51E0008B91E0008EC
:100040007F0200087F0200087F0200087F0200088C
:100050007F0200087F0200087F0200087F0200087C
:100060007F0200087F0200087F0200087F0200086C
:100070007F0200087F0200087F0200087F0200085C
:100080005D0400087F0200087F0200087F0200086C
:100090007F0200087F0200087F0200087F0200083C
:1000A0007F020008691F00087F0200087F02000825
:1000B0007F0200087F0200087F0200087F0200081C
:1000C0007F0200087F0200087F0200087F0200080C
:1000D0007F0200087F020008ED2500087F0200086B
:1000E0007F0200087F0200087F0200087F020008EC
:1000F0007F0200087F0200087F0200087F020008DC
:100100007F0200087F0200087F0200087F020008CB
:100110007F0200087F0200087F0200087F020008BB
:100120007F0200087F0200087F0200087F020008AB
:100130007F02000800000000000000007F020008AD
:100140007F0200087F0200087F0200087F0200088B
:100150007F0200087F0200087F0200087F0200087B
:100160007F0200087F0200087F0200087F0200086B
:100170007F0200087F0200087F02000800000000E4
:10018000000000007F0200080000000000000000E6
:100190007F02000800000000000000007F0200084D
:1001A0000000000000000000000000007F020008C6
:1001B0007F0200087F0200087F0200087F0200081B
:1001C0007F02000800F002F800F03CF80AA090E876
:1001D000000C82448344AAF10107DA4501D100F002
:1001E00031F8AFF2090EBAE80F0013F0010F18BF93
:1001F000FB1A43F001031847AC240000CC24000094
:10020000103A24BF78C878C1FAD8520724BF30C842
:1002100030C144BF04680C60704700000023002414
:1002200000250026103A28BF78C1FBD8520728BF06
:1002300030C148BF0B6070471FB502F01DFA1FBDEB
:1002400010B510BD00F0CFF81146FFF7F5FF02F032
:10025000E5F900F0EDF803B4FFF7F2FF03BC00F09E
:10026000F5F800000948804709480047FEE7FEE727
:10027000FEE7FEE7FEE7FEE7FEE7FEE7FEE7FEE756
:1002800004480549054A064B70470000591F0008FD
:10029000C5010008B0010020B0070020B003002015
:1002A000B003002053EA020C00F069802DE9F04B06
:1002B0004FF00006002B1FBFB3FA83F503FA05F4D5
:1002C00024FA05F65E4012BF1643B2FA82F502FA2E
:1002D00005F4C5F120051EBF22FA05FC44EA0C0412
:1002E000203556EA044C4FEA144418BF641C4FF002
:1002F00000084FF00009904271EB030C39D300293C
:1003000019BFB1FA81F701FA07F6B0FA80F700FADF
:1003100007F6C7F120071EBF20FA07FC46EA0C06C5
:100320002037B6FBF4FCA7EB0507103F07F01F0BC7
:10033000CBF120060CFA0BFB2CFA06F644BFB346B1
:100340000026202FA4BF5E464FF0000B5BEA060C90
:1003500008BF4FF0010B19EB0B09ABFB027C48EB1C
:100360000608C01B06FB02CC0BFB03CC71EB0C0197
:10037000C1E70B46024641464846BDE8F08B13B53F
:100380004FF000004FF00001AFF30080BDE81C40CB
:1003900070474FF0000200B5134694469646203948
:1003A00022BFA0E80C50A0E80C50B1F12001BFF42E
:1003B000F7AF090728BFA0E80C5048BF0CC05DF894
:1003C00004EB890028BF40F8042B08BF704748BFE2
:1003D00020F8022B11F0804F18BF00F8012B704756
:1003E000704770477047754600F02CF8AE46050020
:1003F0006946534620F00700854618B020B5FFF740
:100400003FFFBDE820404FF000064FF000074FF0DF
:1004100000084FF0000B21F00701AC46ACE8C00922
:10042000ACE8C009ACE8C009ACE8C0098D4670472B
:1004300010B50446AFF300802046BDE81040FFF73A
:100440000ABF0000004870474C01002001491820F5
:10045000ABBEFEE7260002007047FEE7014800F051
:10046000B3B80000EC00002001681823CAB2103AAB
:10047000B2FBF3F2054B6FF30901032A9B5CC365E2
:1004800000D9091D816508467047000082260008D2
:1004900010B5014600208B698A6A4FF0C07453B1D1
:1004A000B3F5005F15D072B1012A0CD0022A0AD030
:1004B000032A09D104E01AB1012A06D0022A03D185
:1004C000C96AC90100D5012010BDC96AA142FAD08C
:1004D00010BD002AF7D0012AF2D0022AF3D0032A55
:1004E000F3D010BD30B50468256825F4802525605B
:1004F000046863608368402B036803D099600068D8
:10050000C26030BD9A600068C16030BD704772B68D
:10051000FEE72DE9F0410446876D00F0D5FA064666
:1005200094F835000025022806D08020606584F804
:1005300034500120BDE8F0812068016821F01601E7
:1005400001602068416921F080014161206C08B997
:10055000A06C20B12068016821F0080101602068CA
:10056000016821F0010101600CE000F0ADFA801B90
:10057000052807D920206065032084F8350084F819
:100580003450D7E720680068C007EED194F85C10BB
:100590003F208840B860012084F8350084F834504A
:1005A0000020C7E790F83510022903D0802141656B
:1005B00001207047052180F835100068016821F09E
:1005C00001010160002070472DE9F84304464FF017
:1005D0000009CDF8009063484FF41651A56D0068EE
:1005E000B0FBF1F72E6894F85C10082000FA01F1D6
:1005F00031420FD021680A6852070BD50A6822F0F1
:1006000004020A6094F85C108840A860606D40F0B5
:100610000100606594F85C104FF0010808FA01F0E1
:10062000304208D021684969090604D5A860606D88
:1006300040F00200606594F85C100420884030426D
:1006400008D021680968890704D5A860606D40F06A
:100650000400606594F85C1010208840304218D087
:1006600021680968090714D5A86020680168490352
:1006700004D50068000308D5A16C07E00168C9052E
:1006800003D4016821F008010160216C09B1204602
:10069000884794F85C1020208840304231D021688F
:1006A0000968C9062DD5A86094F83500052820688A
:1006B000016806D0490347D5006800031DD4616C6A
:1006C0001CE021F0160101602068416921F08001E1
:1006D0004161206C08B9A06C20B12068016821F04C
:1006E0000801016094F85C103F208840A86084F8FD
:1006F000358084F83490216D1FE0E16B09B120460C
:100700008847606D00282BD0606DC00714D005208D
:1007100084F835002068016821F00101016000982B
:10072000401C0090B84203D820680068C007F6D18A
:1007300084F8358084F83490E16C002910D001B041
:100740002046BDE8F04308470168C905D5D40168D3
:1007500021F01001016084F8358084F83490CCE7F2
:10076000BDE8F883140000202DE9F041044600F0B4
:10077000ABF906465CB1022084F83500002584F808
:1007800034502068016821F0010101600DE0012072
:10079000BDE8F08100F098F9801B052805D92020DC
:1007A0006065032084F83500F2E720680068C00720
:1007B000F0D12268116820480140D4E901031843B0
:1007C000D4E903363343184363691843A3691843D4
:1007D000E3691843236A18430843616A042903D173
:1007E000D4E90B1319430843106020684069666A16
:1007F00020F0070130460E43012704280CD1A06ADF
:100800000643E06A40B12046FFF742FE20B1402097
:10081000606584F83570BAE7206846612046FFF7C6
:1008200023FE94F85C203F2191408160656584F847
:1008300035700020ACE700003F8010F02DE9F0415A
:100840000446866D90F83400002501280DD0012063
:1008500084F8340094F835700020012F07D084F814
:10086000340002252846BDE8F0810220FBE702277C
:1008700084F8357060652046FFF734FE94F85C100C
:100880003F208840B0602068016841F01601016097
:10089000206C20B12068016841F0080101602068E7
:1008A000016841F001010160DCE7000070B5044619
:1008B00000F00AF90546601C02D0044800780444A0
:1008C00000F002F9401BA042FAD370BD08000020DE
:1008D0002DE9F84FDFF8ACA10022012403254FF0E9
:1008E0000F090AF1040BAAF1040E00BF0B6804FA09
:1008F00002F63340B3426ED10F7907F00307012FA0
:1009000001D0022F16D187684FEA420805FA08FC89
:1009100027EA0C07D1F80CC00CFA08FC4CEA070CCB
:10092000C0F808C04768B7430E79C6F30016964072
:100930003E4346600E79F643B6070AD0C6684FEAD2
:10094000420C05FA0CF7BE438F6807FA0CF73743E1
:10095000C7600E7906F00306022E10D1D60800EB10
:100960008608D8F8206057074FEAD76C09FA0CF7C9
:10097000BE430F6907FA0CF73743C8F820700668C2
:100980004FEA420C05FA0CF7BE430F7907F0030754
:1009900007FA0CF7374307604E6816F4403F6BD0F8
:1009A000394E376847F480473760366822F00307CE
:1009B00006F480460096354E07EB060CDCF8086816
:1009C00097074FEA177809FA08F7BE43304FB84245
:1009D00002D100271FE04FE02E4FB84201D101277E
:1009E00019E02D4FB84201D1022714E02B4FB84235
:1009F00001D103270FE02A4FB84201D104270AE0B2
:100A0000284FB84201D1052705E0274FB84201D150
:100A1000062700E0072707FA08F73743CCF80878DD
:100A2000DAF800605746D1F804C09E435FEACC2C48
:100A300000D51E433E60DBF800605F46D1F804C07D
:100A40009E435FEA8C2C00D51E433E60DEF80060BA
:100A50007746D1F804C09E435FEA8C3C00D51E4324
:100A60003E60084F083F3E68D1F804C09E435FEAED
:100A7000CC3C00D51E433E60521C102AFFF436AF1A
:100A8000BDE8F88F083C0140443802400030014086
:100A9000000002400004024000080240000C024036
:100AA000001002400014024000180240426921EA8E
:100AB00002030A4043EA0241816170470AB1816141
:100AC00070470904FBE70000014880687047000098
:100AD0000800002002488168027811448160704754
:100AE000080000200B4810B5016841F40071016056
:100AF000016841F480610160016841F48071016026
:100B0000032000F06FF80F2000F006F800F024F842
:100B1000002010BD003C024070B50D4D04464FF45E
:100B20007A712878B1FBF0F00A490968B1FBF0F05E
:100B300000F072FB48B9102C07D200222146501E4B
:100B400000F030F800206C6070BD012070BD000026
:100B500008000020140000200A4808B5016841F48C
:100B600080410160006800F4804000900548001F4B
:100B7000016841F080510160006800F080500090F1
:100B800008BD000044380240002809DB00F01F02C5
:100B9000012191404009800000F1E020C0F80011DF
:100BA00070470000F0B40E4B1B680C46C3F30223E1
:100BB000C3F10705042D00D90425191D072901D209
:100BC000002300E0DB1E012606FA05F1491E214044
:100BD00099409E40761E16403143F0BC01F00DBD99
:100BE0000CED00E0064900F0070208684FF6FF032D
:100BF000184040EA0220034A104308607047000092
:100C00000CED00E00000FA052DE9F84317480168F3
:100C100041F0805101600068154F00F080500126BE
:100C200000903E64FFF750FF05464FF47A78114C70
:100C300005E000BFFFF748FF401B40450DD8606846
:100C4000C003F7D57E64FFF73FFF0546464607E041
:100C5000FFF73AFF401BB04202D90320BDE8F883FA
:100C600060688003F4D50020F8E7000040380240B7
:100C700000000E42007000402DE9F0470E460500CE
:100C800065D0DFF81481D8F80000F7B200F00F004B
:100C9000B04207D288F80070D8F8000000F00F00CA
:100CA000B04254D128683D4C810712D5400703D586
:100CB000206840F4E05020602878000703D52068C1
:100CC00040F4604020602068A96820F0F0000843EC
:100CD00020602878C0072DD030496868083901287D
:100CE00012D0022813D0032811D0096889070029DF
:100CF0002DDA216821F0030101432160FFF7E4FEB2
:100D0000814641F2883A0EE009688903EFE70968F5
:100D10008901ECE7FFF7D8FEA0EB0901514502D9A4
:100D20000320BDE8F0872068696800F00C00B0EB94
:100D3000810FEFD1D8F80010404601F00F01B14209
:100D400007D90770006800F00F00B04201D0012001
:100D5000E7E72878400705D52068E96820F4E050E7
:100D6000084320602878000706D52068296920F408
:100D7000604040EAC100206000F038F82168084A6D
:100D8000C1F30311515CC840064908600648006879
:100D9000FFF7C2FE0020C4E7003C024008380240D2
:100DA0008A260008140000200C0000200448054991
:100DB00000680968044AC1F38221515CC840704749
:100DC00014000020083802409A260008044805490B
:100DD00000680968044AC1F34231515CC840704759
:100DE00014000020083802409A260008224810B556
:100DF000006810F00C02214815D04110042A11D0CF
:100E00001D4C241F082A0FD00C2A0CD122682368FD
:100E100002F03F025B0221D52068C0F38810A0FBDE
:100E2000010120E0084610BD2268236802F03F025D
:100E30005B0205D52068C0F38810A0FB010104E027
:100E40002168C1F38811A1FB00010023FFF72AFAF2
:100E50002168C1F30141491C49000AE02168C1F33E
:100E60008811A1FB00010023FFF71CFA2168C1F3E0
:100E70000271B0FBF1F010BD083802400024F4000C
:100E80002DE9F84F04007DD0DFF878B32078ABF17E
:100E90000407C007A7F1040550D0DBF8001058463E
:100EA000C1F3810101290FD00168C1F38101022939
:100EB00002D13968490207D40068C0F381000328D1
:100EC00009D13868400206D52868800336D56068A5
:100ED0000028D8D032E06068B0F5803F10D0B0F57F
:100EE000A02F286810D020F480302860286820F4D3
:100EF000802028606068A0B1FFF7E6FD06460CE0A0
:100F0000286840F48030F4E740F480202860F7E758
:100F1000FFF7DAFD801B642876D828688003F7D5B0
:100F20000CE0FFF7D1FD064605E000BFFFF7CCFD62
:100F3000801B6428F0D828688003F7D42078DFF875
:100F4000C89280074FF0000A44D5DBF800105846DD
:100F500011F00C0F0FD00168C1F38101022902D1F9
:100F60003968490207D50068C0F3810003280AD117
:100F70003868400207D42868800715D5E068012842
:100F800000D111E03AE1E068B0B10120C9F80000F9
:100F9000FFF79AFD064604E0FFF796FD801B022846
:100FA000BAD828688007F7D52868216920F0F800AA
:100FB00040EAC10028600DE0C9F800A0FFF784FDF9
:100FC000064604E0FFF780FD801B02281CD8286835
:100FD0008007F7D42078000727D5DFF828828B48D0
:100FE000616908F16C0881B101210160FFF76CFDB6
:100FF000064604E0FFF768FD801B022804D8D8F8F5
:1010000000008007F6D510E089E0C0F800A0FFF7E7
:101010005BFD064605E000BFFFF756FD801B02287A
:101020007DD8D8F800008007F6D42078400769D52D
:1010300074484FF0000838300068C0000BD4714885
:101040003830016841F08051016000684FF00108BC
:1010500000F0805000906E4E3068C00511D43068AA
:1010600040F480703060FFF72FFD009006E000BF75
:10107000FFF72AFD0099401A022850D83068C005B1
:10108000F6D5604EA068683601280FD00528306874
:1010900010D020F001003060306820F00400306093
:1010A000A068B8B1FFF710FD00900FE0306840F085
:1010B0000100F4E740F004003060F7E7FFF704FDBB
:1010C0000099411A41F28830814264D83068800723
:1010D000F4D50EE0FFF7F8FC009007E0FFF7F4FC12
:1010E0000099411A41F28830814254D83068800713
:1010F000F4D4B8F1000F05D042483830016821F02F
:1011000080510160A069A8B3DBF80010C1F3810130
:10111000022947D00228C9F860A005D000E03AE0D3
:10112000FFF7D2FC044639E0FFF7CEFC064604E0A8
:10113000FFF7CAFC801B02282DD828688001F7D44D
:10114000F4E907010843E168324A490802EB01412A
:10115000A26841EA82110843217C40EA0160217DB6
:1011600040EA017038600120C9F86000FFF7ACFC6C
:10117000044606E044E000BFFFF7A6FC001B02287F
:1011800009D828688001F7D53AE000BFFFF79CFC3A
:10119000001B022802D90320BDE8F88F28688001CF
:1011A000F4D42DE00128F7D03868E26900F480011A
:1011B000914223D1226A00F03F0191421ED147F6AD
:1011C000C071626A0140B1EB821F17D1A26A4FF071
:1011D000FF3300F4403103EB5202B1EB024F0DD16B
:1011E00094F82C2000F07061B1EB026F06D194F8F6
:1011F000301000F0E040B0EB017F01D00120CBE7E0
:101200000020C9E70838024000004742800E4742EC
:10121000007000400000FFFF10B5401EB0F1807F5D
:1012200001D3012010BD4FF0E02460610F21601751
:1012300001F0E3F90020A06107202061002010BD2B
:101240007047704770B590F83C20012A32D00124D5
:1012500080F83C40022280F83D2003685A689D686F
:1012600022F070060A6832435A60134B02689A42B1
:1012700014D0B2F1804F11D0104B9A420ED0104BC7
:101280009A420BD00F4B9A4208D00F4B9A4205D08E
:101290000E4B9A4202D00E4B9A4204D1496825F077
:1012A00080031943916080F83D40002180F83C1094
:1012B000084670BD022070BD0000014000040040DF
:1012C00000080040000C00400004014000400140C4
:1012D0000018004010B5040003D094F83D0010B190
:1012E00007E0012010BD002084F83C00204600F0FB
:1012F0001FF8022084F83D00211D206800F03AFE0E
:10130000012084F8460084F83E0084F83F0084F809
:10131000400084F8410084F8420084F8430084F8D7
:10132000440084F8450084F83D00002010BD000012
:1013300008B500681149884212D11148016841F08E
:10134000010101600068002200F0010000901146D8
:101350001920FFF727FCBDE808401920FFF714BC4F
:101360000849884209D10648001F016841F002017E
:101370000160006800F00200009008BD000001401C
:10138000443802400004004090F83D10012901D08B
:1013900001207047022180F83D100168CA6842F0C0
:1013A0000102CA6000681149884214D0B0F1804F30
:1013B00011D00F4988420ED00E4988420BD00E49F9
:1013C000884208D00D49884205D00D49884202D094
:1013D0000C49884204D1816801F00701062903D035
:1013E000016841F0010101600020704700000140E8
:1013F0000004004000080040000C004000040140D0
:10140000004001400018004070B5044690F83C00D0
:101410000025012817D0012684F83C60022084F8BA
:101420003D002068826822F0770222F47F428260C9
:101430000868502838D00DDC20284FD005DC90B348
:10144000102811D14AE0022070BD302846D0402833
:101450000AD13BE060282FD070280DD0B0F5805F16
:1014600003D0B0F5005F12D0012584F83D60002064
:1014700084F83C00284670BDCB68D1E90121206882
:1014800000F0DCFD2068816841F0770109E0CB685D
:10149000D1E90121206800F0D1FD2068816841F484
:1014A00080418160E1E719E0CA684968206800F07E
:1014B00099FE5021206806E0CA684968206800F05B
:1014C000A2FE6021206800F0C3FDCEE7CA6849682B
:1014D000206800F087FE40212068F4E7226801467A
:1014E0001046F0E7704770B50446006801694FF098
:1014F0000005C943890715D4C168C943890711D4B8
:10150000E91E01610120207720688069800720465C
:1015100002D0FFF7E7FF04E000F0C0F8204600F03B
:1015200052F9257720680169C943490717D4C16872
:10153000C943490713D46FF00401016102202077E9
:101540002068806910F4407F204602D0FFF7CAFF70
:1015500004E000F0A3F8204600F035F92577206874
:101560000169C943090716D4C168C943090712D4E0
:101570006FF008010161042020772068C0698007AE
:10158000204602D0FFF7AEFF04E000F087F82046C7
:1015900000F019F9257720680169C943C90617D4F5
:1015A000C168C943C90613D46FF010010161082056
:1015B00020772068C06910F4407F204602D0FFF7F2
:1015C00091FF04E000F06AF8204600F0FCF825776F
:1015D00020680169C943C90708D1C168C943C9075F
:1015E00004D1891E0161204600F0EEF820680169EF
:1015F000C943090609D4C168C943090605D46FF077
:10160000800101612046FFF71BFE20680169C94384
:10161000490609D4C168C943490605D46FF04001A1
:101620000161204600F0DEF820680169C94389069F
:101630000BD4C168C943890607D46FF0200101614A
:101640002046BDE87040FFF7FCBD70BD10B586B008
:10165000044614216846FEF79CFE0D492068884226
:1016600014D10C48016841F00101016000680121BA
:1016700000F001000590802000900220CDE90101DA
:101680000390049069460448FFF722F906B010BDA4
:10169000000400403038024000000240704770B53E
:1016A000044690F83C0000260D4601280FD001208A
:1016B00084F83C006AB1042A1DD0082A2FD00C2AD5
:1016C0003FD00126002084F83C00304670BD022047
:1016D00070BD206800F0C4FC2068816941F00801F9
:1016E00081612068816921F004018161206881693C
:1016F0002A69114311E0206800F0E2FC206881694A
:1017000041F4006181612068816921F48061816117
:10171000206881692A6941EA02218161D2E7206853
:1017200000F004FD2068C16941F00801C161206832
:10173000C16921F00401C1612068C1692A691143AE
:1017400011E0206800F026FD2068C16941F40061C5
:10175000C1612068C16921F48061C1612068C169EB
:101760002A6941EA0221C161ACE710B5040003D047
:1017700094F83D0010B107E0012010BD002084F86E
:101780003C00204600F01EF8022084F83D00211D98
:10179000206800F0EFFB012084F8460084F83E004A
:1017A00084F83F0084F8400084F8410084F8420047
:1017B00084F8430084F8440084F8450084F83D0030
:1017C000002010BD7047704700680449884203D16B
:1017D00020210348FFF76AB970470000000001406C
:1017E00000000240704738B5044690F83E002028BB
:1017F00022D181B17AB194F83C0001281CD001209B
:1018000084F83C002063204600F0A6FE002803D1A7
:10181000216B012901D0012038BD21680A6849687F
:10182000009121680C3151E8002F42F0100241E88C
:101830000023002BF5D138BD022038BD10B50C4671
:1018400000681149884203D010BD104800F024F808
:1018500004220F490D48FFF7C6FF0028F5D10D48B7
:101860000068016821F008010160042CECD10848EF
:10187000011FC278192A03D000204880087010BDCB
:1018800002884A808078F9E700440040A8000020E0
:1018900004000020EC00002010B5044600684069F8
:1018A00094F83D10C0F3C010212911D180B12068F7
:1018B000143050E8001F21F0800140E80012002A97
:1018C000F5D1606B08B1FEF724FE204600F04FFD15
:1018D0002068406994F83E10C0F38010222911D18D
:1018E00080B12068143050E8001F21F0400140E82A
:1018F0000012002AF5D1A06B08B1FEF70AFE2046BF
:1019000000F00EFD002010BD10B500680A498842A5
:1019100003D010BD0948FFF7BFFF0422084907485C
:10192000FFF761FF0028F5D106480068016821F043
:101930000801016010BD000000440040A800002024
:1019400004000020EC000020F8B501680446086897
:10195000CA684B6910F00F0F4FF000055AD003F022
:10196000010602F49077374365D0C10705D0D10551
:1019700003D5216C41F001012164410705D5D90748
:1019800003D0216C41F002012164810705D5D907FC
:1019900003D0216C41F004012164010707D502F056
:1019A0002001314303D0216C41F008012164216CF6
:1019B00000293BD0800604D5900602D5204600F0D1
:1019C000E4FC20684069216CC0F3801001F008013C
:1019D000014320462BD000F0A3FC2068406940065C
:1019E00021D52068143050E8001F21F0400140E864
:1019F0000012002AF5D1A06BA8B16C490165A06B5B
:101A0000FEF7D0FD002811D0A06B016D01B0BDE83C
:101A1000F040084783060ED593060CD52046BDE856
:101A2000F84000F0B2BC2046FFF76EFFF8BDFFF7AC
:101A30006BFF2564F8BD266B2023012E79D1C606E5
:101A400077D5D60675D5086848680090486940067D
:101A500040D5A16B086840680004000CEAD0A28D54
:101A60008242E7D9E085C869B0F5807F2DD0206833
:101A70000C3050E8001F21F4807140E80012002A69
:101A8000F5D12068143050E8001F21F0010140E832
:101A90000012002AF5D12068143050E8001F21F010
:101AA000400140E80012002AF5D184F83E30256359
:101AB00020680C3050E8001F21F0100140E80012AF
:101AC000002AF5D1A06BFEF724FDA08DE18D401A10
:101AD00081B229E0A08DE18D401A81B2E08D00280D
:101AE000A8D00029A6D020680C3050E8002F22F49E
:101AF000907240E80026002EF5D12068143050E89E
:101B0000002F22F0010240E80026002EF5D184F8D3
:101B10003E30256320680C3050E8002F22F0100280
:101B200040E80023002BF5D12046FFF787FEF8BDE3
:101B3000FFE705062BD5150629D594F83D00212889
:101B4000F5D1A068B0F5805F01D12069B0B1206AFD
:101B5000411C2162216800784860E08C401E00042E
:101B6000000CE084E3D12068C16821F08001C160ED
:101B70002068C16841F04001C160D8E7206A008850
:101B8000C0F308004860206A801C2062E5E7400638
:101B9000CDD55006CBD5CA68204622F04002CA6097
:101BA00084F83D3000F09EF8C1E700002B220008C9
:101BB00070B5040004D094F83D00002510B106E093
:101BC000012070BD84F83C50204600F023F824200A
:101BD00084F83D002068C16821F40051C1602046AE
:101BE00000F034FC2068016921F490410161206813
:101BF000416921F02A0141612068C16841F4005126
:101C0000C1602564202084F83D0084F83E00002057
:101C100070BD00002DE9F04387B0064614216846E8
:101C2000FEF7B7FB2949306888424CD12848002587
:101C3000016841F400310160006800F40030059053
:101C400023481038016841F0010101600068022456
:101C500000F001000590042003274FF007088DE8ED
:101C6000B101DFF8709069464846FEF731FE082062
:101C7000CDE9000402AA012082E8810169464846B4
:101C8000FEF726FE154C144820604FF00060C4E9B2
:101C900001054014C4E9035080106561C4E9065091
:101CA0004002C4E908052046FEF75EFD08B1FEF7D4
:101CB0002EFCB463002211462620A663FEF772FFB5
:101CC0002620FEF761FF07B0BDE8F0830044004026
:101CD000403802400000024088600240EC000020D2
:101CE000704770477047FEE7094808B5016841F43E
:101CF000001101600068002200F4001000901146FD
:101D00001020FEF74FFFBDE808401020FEF73CBF53
:101D10003038024030B587B014216846FEF739FBF1
:101D200011480024016841F080010160016801F060
:101D300080010591016841F00101016000680B4DCF
:101D400000F001000590224620212846FEF7B6FE4D
:101D5000202000900120CDE9010469462846039423
:101D6000FEF7B6FD07B030BD30380240000002403B
:101D700010B586B00024184800940194029403948E
:101D8000049414490594016040F2E731C0E901145C
:101D900040F20771C0E9031444618461FFF79AFAC5
:101DA00008B1FEF7B4FB4FF48050009069460A4832
:101DB000FFF72AFB08B1FEF7AAFB049404A9064822
:101DC0000594FFF73FFA002801D0FEF7A0FB06B00C
:101DD00010BD0000000001401800002010B58EB0BA
:101DE00000240794089409940A940B941C216846D3
:101DF0000C94FEF7CEFA1F481D49016040F2833172
:101E0000C0E9011440F2E731C0E903148461FFF72F
:101E100061FA08B1FEF77BFB4FF48050079007A9E9
:101E20001448FFF7F1FA08B1FEF771FB1148FFF70C
:101E30009CFC08B1FEF76BFB0B940BA90D480C94AE
:101E4000FFF700FA08B1FEF762FB6020CDE900045D
:101E500002940422694607480494FFF720FC08B165
:101E6000FEF755FB0348FFF7F1FB0EB010BD000075
:101E700000040040600000200C4810B50A490160D1
:101E80004FF4E1314160002181600C22C160C0E962
:101E900004128161C161FFF78BFE002803D0BDE809
:101EA0001040FEF734BB10BD00440040A8000020E5
:101EB000FEE7FEE770477047FEF70CBE10B594B022
:101EC00034216846FEF765FA14210DA8FEF761FA81
:101ED0001F480024016841F080510160006800F053
:101EE000805012901B48016841F440410160006835
:101EF00000F4404012900120009000040190022064
:101F00004105CDE9060104210891B421CDE909106C
:101F10000B900C906846FEF7B3FF08B172B6FEE76F
:101F2000FEF772FE08B172B6FEE70F200D90032097
:101F3000CDE90E044FF4A0501090119005210DA88A
:101F4000FEF79AFE002801D072B6FEE714B010BD6D
:101F500040380240007000400248016841F47001BE
:101F60000160704788ED00E00148FFF7BCBA00004F
:101F700018000020F0B50268254C264D264E274F4C
:101F8000274B4FF0804CA04209D0604507D0A842B3
:101F900005D0B04203D0B84201D0984204D122F01B
:101FA000700E4A6842EA0E02A0421BD0604519D06A
:101FB000A84217D0B04215D0B84213D0984211D0E1
:101FC000184DA8420ED0184DA8420BD0174DA8426C
:101FD00008D0174DA84205D0164DA84202D0164D84
:101FE000A84203D122F44075CA682A434D6922F001
:101FF00080022A4302608A68C2620A688262A04242
:1020000001D0984201D10969016301214161F0BD0C
:10201000000001400004004000080040000C0040A7
:1020200000040140004001400044014000480140DC
:1020300000180040001C00400020004010B58468DB
:1020400042EA032224F47F440A432243826010BD03
:10205000826822F070020A4342F0070181607047F3
:10206000F0B5026A22F001020262036A42688469E2
:10207000124E24F073050C682C4323F002058B6884
:102080002B430D4DA84201D0B04205D123F00807E3
:10209000CB683B4323F00403A84201D0B04205D1F2
:1020A0004D6922F4407215438A692A434260846173
:1020B000496841630362F0BD000001400004014033
:1020C000F0B5026A22F010020262026A4368846973
:1020D0000D6824F4E64444EA05248D6822F02002C9
:1020E00042EA05120F4D104EA84201D0B04206D16F
:1020F000CF6822F0800242EA071222F04002A84292
:1021000001D0B04207D14D6923F4406343EA85030F
:102110008D6943EA85034360846149688163026293
:10212000F0BD00000000014000040140F0B5026A6B
:1021300022F480720262026A4368C46922F4007267
:1021400024F073050C68124E2C438D6842EA052278
:102150000E4DA84201D0B04206D1CF6822F40062F1
:1021600042EA072222F48062A84201D0B04207D19D
:102170004D6923F4405343EA05138D6943EA05137F
:102180004360C4614968C1630262F0BD0000014060
:102190000004014030B5026A22F480520262046AEF
:1021A0004268C3690D6823F4E64343EA05238D685A
:1021B00024F4005444EA0534084DA84202D0084DE6
:1021C000A84204D14D6922F4804242EA851242605D
:1021D000C36149680164046230BD00000000014031
:1021E0000004014010B5036A046A24F0010404628B
:1021F000846924F0F00444EA021423F00A020A433A
:102200008461026210BD10B5036A23F010030362FB
:102210008369046A23F4704343EA023224F0A00382
:1022200043EA01118261016210BD10B5806B00218B
:10223000C185C184FFF768FB10BD70B5846B206851
:10224000406994F83D10C0F3C0100025212904D145
:1022500018B1E584204600F08AF82068406994F8B7
:102260003E10C0F38010222904D118B1E585204624
:1022700000F056F8206C40F0100020642046FFF774
:1022800043FB70BD10B50146806B09680968C9053C
:102290002FD40021C18501680C3151E8002F22F4B0
:1022A000807241E80023002BF5D10168143151E818
:1022B000002F22F0010241E80023002BF5D1016834
:1022C000143151E8002F22F0400241E80023002B96
:1022D000F5D1202180F83E10016B012909D1016858
:1022E0000C3151E8002F22F0100241E80023002BAE
:1022F000F5D1016B012902D0FFF7F2FC10BD818DF1
:10230000FFF79CFA10BD10B5806B016B012902D05C
:10231000FFF7E7FC10BD818D4908FFF78FFA10BD6C
:1023200001680C3151E8002F22F4907241E800233B
:10233000002BF5D10168143151E8002F22F0010281
:1023400041E80023002BF5D1016B012909D1016877
:102350000C3151E8002F22F0100241E80023002B3D
:10236000F5D1202180F83E100021016370470168FB
:102370000C3151E8002F22F0C00241E80023002B6D
:10238000F5D1202180F83D10704708B590F83E1037
:10239000222901D0022008BD82684FF480539A425E
:1023A00001D1016921B1816A9A421BD04AB10AE088
:1023B0000268816A5268C2F308020A80816A891C35
:1023C00008E0026972B10268526802F07F020A7086
:1023D000816A491C8162C18D491E0904090CC185AD
:1023E00003D019E002685268F1E70168CA6822F078
:1023F0002002CA600168CA6822F48072CA6001685B
:102400004A6922F001024A61202180F83E10016BE6
:10241000012903D0FFF764FC002008BD00210163FF
:1024200001680C3151E8002F22F0100241E800232E
:10243000002BF5D101680A68D20602D50A684968FE
:102440000091818DFFF7FAF9E6E7000070B50446C8
:1024500000680169E26821F440511143016121697A
:10246000A068E26908436169114308432168CA68AA
:1024700049F20C639A430243CA6020684169A26929
:1024800021F440711143416131492068884202D0F2
:102490003049884202D1FEF799FC01E0FEF786FC44
:1024A000E2690023192164253226B2F5004F6268E3
:1024B00028D0A0FB0101930F9200FDF7F3FE014627
:1024C000B0FBF5F06FF01802504301EB800006EB13
:1024D0000010B0FBF5F000F0F002B1FBF5F002EBFC
:1024E0000012B1FBF5F06FF01803584301EB8000C8
:1024F00006EB0010B0FBF5F000F00F00216810446F
:10250000886070BDA0FB010192185B41FDF7CAFE17
:102510000146B0FBF5F00201B1FBF5F06FF01803D6
:10252000584301EB800006EBC000B0FBF5F000F073
:10253000F80002EB4002B1FBF5F0584301EB8000DC
:1025400006EBC000B0FBF5F000F00700D6E7000096
:10255000001001400014014038B5816282850025D9
:10256000134604460564222084F83E00A26B1C48F2
:10257000D063A26B1B481064A26B1B48D064A06B95
:102580000A4605652168A06B091DFEF757F920680A
:1025900001684068009084F83C50206948B1206888
:1025A0000C3050E8001F41F4807140E80012002A0E
:1025B000F5D12068143050E8001F41F0010140E8D7
:1025C0000012002AF5D12068143050E8001F41F0B5
:1025D000400140E80012002AF5D1002038BD00007B
:1025E00085220008072300083B2200080148FFF766
:1025F000ABB90000A8000020FEE70907090E00287B
:1026000004DB00F1E02080F80014704700F00F00B8
:1026100000F1E02080F8141D70470000FEF762FA18
:10262000FFF74CFCFFF776FBFFF75EFBFFF724FCA0
:10263000FFF79EFBFFF7D2FB0B48FEF7A5FE02E07B
:102640000A48FFF729F9042209490848FFF7CBF89F
:102650000028F5D107480068016821F008010160F1
:102660000A20FEF723F9FBE718000020A80000204D
:1026700004000020EC0000204FF04070E1EE100A52
:10268000704700061016000610160000000000003B
:10269000000001020304060708090000000001020F
:1026A00003040000C42600080000002018000000F9
:1026B00000020008DC26000818000020980700002F
:1026C0001C020008000000000000000001000000E3
:0C26D00010000000000000000024F400D6
:04000005080001C529
:00000001FF
